:020000040800F2
:10000000D004002005010008BB120008E711000819
:10001000B91200081F02000885180008000000003F
:1000200000000000000000000000000011170008A0
:100030002102000800000000D9150008131700086D
:100040001F0100081F0100081F0100081F01000810
:100050001F0100081F0100081F0100081F01000800
:100060001F0100081F0100081F0100081F010008F0
:100070001F0100081F0100081F0100081F010008E0
:100080001F0100081F0100081F0100081F010008D0
:100090001F0100081F0100081F0100081F010008C0
:1000A0001F0100081F0100081F0100081F010008B0
:1000B0001F0100081F0100081F0100081F010008A0
:1000C0001F0100081F0100081F0100081F01000890
:1000D0001F0100081F0100081F0100081F01000880
:1000E0001F0100081F0100081F010008DFF810D0E1
:1000F00000F074F800480047511D0008AFF300807D
:10010000D00400200648804706480047FEE7FEE787
:10011000FEE7FEE7FEE7FEE7FEE7FEE7FEE7FEE7B7
:1001200065170008ED000008202A04DB203A21FAB8
:1001300002F00021704721FA02F3D040C2F1200200
:100140009140084319467047D2B201E000F8012BF4
:10015000491EFBD270470022F6E710B513460A4647
:1001600004461946FFF7F0FF204610BD421C10F868
:10017000011B0029FBD1801A70472DE9F05F05466D
:10018000002092469B4688460646814640241BE056
:100190002846414647462246FFF7C6FF53465A4681
:1001A000C01A914110D311461846224600F028F893
:1001B0002D1A67EB01084F4622460120002100F06E
:1001C0001FF817EB00094E41201EA4F10104DFDCEB
:1001D000484631462A464346BDE8F09F064C074D47
:1001E00006E0E06840F0010394E807009847103407
:1001F000AC42F6D3FFF77EFF64210008842100089B
:10020000202A04DB203A00FA02F1002070479140D6
:10021000C2F1200320FA03F3194390407047FEE730
:100220007047000001B5074807490068B0FBF1F0CE
:10023000009948430090411E009101D30846FAE717
:1002400008BD0000180000204054890070B5044625
:1002500000F004F90546601C02D00448007804440C
:1002600000F0FCF8401BA042FAD370BD0C00002047
:100270002DE9F84FDFF8B891002409F1040A0AF1DA
:10028000040B23460F270BF1040EC9E00125A540FE
:100290002A40AA427DD1674ED1F804C0ACEB0608D3
:1002A000B44532D014DCBCF1030F3AD009DCBCF108
:1002B000000F2AD0BCF1010F1CD0BCF1020F31D1CC
:1002C0001DE0BCF1110F17D0BCF1120F2AD119E0BB
:1002D000B8F5881F19D006DCB8F5803F15D0B8F501
:1002E000801F1FD111E0B8F5001F0ED0B8F5041F14
:1002F00018D10AE0CB6815E0CB681B1D12E0CB6873
:1003000008330FE0CB680C330CE08B682BB1012B6A
:100310004FF0080303D0456104E0042302E00561C7
:1003200000E00023FF2A01D8064601E000F10406A0
:100330004FEA840501D9A5F12005D6F8008007FA17
:1003400005FC28EA0C0803FA05F548EA0508C6F892
:1003500000804D68ED0062D5374DAE6946F001066C
:10036000AE61AD6924F0030605F001050095334D3B
:1003700006EB050CDCF80850A607360F07FA06F85E
:1003800025EA0805DFF8B880404503D14FF00008A2
:1003900017E044E0DFF8AC80404502D14FF001089F
:1003A0000FE0DFF8A480404502D14FF0020808E0DA
:1003B000DFF89880404502D14FF0030801E04FF08C
:1003C000040808FA06F848EA0508CCF808804D68E1
:1003D000D9F80060ED034D4601D5164300E0964381
:1003E0002E604D68DAF80060AD03554601D516431E
:1003F00000E096432E604D68DBF80060ED025D463C
:1004000001D5164300E096432E604D68DEF800608B
:10041000AD02754601D5164300E096432E60641C7C
:100420000D682A46E5407FF431AFBDE8F88F000043
:1004300000040140000011100010024000000140C3
:1004400000080140000C0140001001400014014070
:100450000AB1016170470904FBE7000001488068A8
:10046000704700000C0000200248816802781144A7
:10047000816070470C000020074810B5016841F00A
:1004800010010160032000F067F8002000F006F87A
:1004900000F024F8002010BD0020024070B50D4D82
:1004A00004464FF47A712878B1FBF0F00A490968E4
:1004B000B1FBF0F000F0C1FD48B9102C07D20022CA
:1004C0002146501E00F028F800206C6070BD01200D
:1004D00070BD00000C000020180000200C4808B57A
:1004E000816941F001018161816901F0010100919F
:1004F000C16941F08051C161C06900F08050009035
:100500000448416821F0E06141F00071416008BD9C
:100510000010024000000140F0B40E4B1B680C4676
:10052000C3F30223C3F10705042D00D90425191DC7
:10053000072901D2002300E0DB1E012606FA05F19F
:10054000491E214099409E40761E16403143F0BC22
:1005500001F0AEB90CED00E0064900F007020868B2
:100560004FF6FF03184040EA0220034A1043086098
:10057000704700000CED00E00000FA052DE9F0479F
:100580000F46050061D0434E306800F00700B842C6
:1005900009D2306820F0070038433060306800F03E
:1005A0000700B84251D128683B4C810712D540075B
:1005B00003D5606840F4E06060602878000703D5E8
:1005C000606840F4605060606068A96820F0F000E6
:1005D000084360602878C00728D06868012810D0D8
:1005E0002168022810D0890700292EDA616821F0DD
:1005F000030101436160FFF731FF804641F2883912
:100600000DE021688903EFE78901EDE7FFF726FF99
:10061000A0EB0801494502D90320BDE8F0876068D6
:10062000696800F00C00B0EB810FEFD1306800F08A
:100630000700B8420BD9306820F00700384330601B
:10064000306800F00700B84201D00120E5E72878C3
:10065000400705D56068E96820F4E0600843606001
:100660002878000706D56068296920F4605040EAC0
:10067000C100606000F038F86168084AC1F30311F6
:10068000515CC8400649086006480068FFF706FF4D
:100690000020C2E700200240001002404C21000868
:1006A000180000201000002004480549006849682F
:1006B000044AC1F30221515CC84070471800002071
:1006C000001002405C2100080448054900684968A0
:1006D000044AC1F3C221515CC84070471800002091
:1006E000001002405C21000812A185B00FC98DE8FE
:1006F0000F0014A0144A006804905168134801F0D8
:100700000C03042B10D0082B0ED1C1F38343C90373
:100710001DF803000AD5516804AAC1F34041515C99
:100720000A4A5043B0FBF1F005B07047084948430E
:10073000FAE7000002030405060708090A0B0C0D7E
:100740000E0F1010010200000010024000127A008B
:1007500000093D002DE9F84F040070D02078C04D0D
:10076000C00749D06868C0F38100012807D06868D5
:10077000C0F38100022809D16868C00306D5286843
:10078000800339D560680028E7D035E06068B0F5AF
:10079000803F0BD010B1B0F5A02F11D0286820F405
:1007A00080302860286820F4802002E0286840F427
:1007B00080302860606890B1FFF750FE06460AE07E
:1007C000286840F480202860F0E700BFFFF746FE6D
:1007D000801B642873D828688003F7D50CE0FFF7E6
:1007E0003DFE064605E000BFFFF738FE801B64288B
:1007F000F0D828688003F7D420789A4E80074FF00D
:1008000001094FF0000839D5686810F00C0F07D0C7
:100810006868C0F38100022809D16868C00306D463
:100820002868800714D52069012808D110E02069C4
:10083000B0B1C6F80090FFF711FE074605E00AE1E7
:10084000FFF70CFEC01B0228C4D828688007F7D524
:100850002868616920F0F80040EAC10028600DE0D6
:10086000C6F80080FFF7FAFD074604E0FFF7F6FD43
:10087000C01B022823D828688007F7D420780007F7
:100880002CD57948A169D9B1C0F80090FFF7E6FDF1
:10089000074604E0FFF7E2FDC01B02280FD8686A94
:1008A0008007F7D571484FF4FA510068B0FBF1F0BA
:1008B000009000BF0098411E0091FAD20EE080E047
:1008C000C0F80080FFF7CAFD074604E0FFF7C6FD49
:1008D000C01B022875D8686A8007F7D420784007C3
:1008E00060D5E8690027C00008D4E86940F080506E
:1008F000E861E869012700F0805000905C480168D9
:10090000C90513D40168834641F480710160FFF783
:10091000A5FD824606E000BFFFF7A0FDA0EB0A00A0
:1009200064284ED8DBF80000C005F5D5E068012842
:100930000AD008B1052813D0286A20F001002862E7
:10094000286A20F0040002E0286A40F001002862D2
:10095000E06841F2883B98B1FFF780FD82460BE0EA
:10096000286A40F004002862EEE700BFFFF776FD3A
:10097000A0EB0A0159455AD8286A8007F6D50CE041
:10098000FFF76CFD824605E0FFF768FDA0EB0A016A
:1009900059454CD8286A8007F6D41FB1E86920F081
:1009A0008050E861E06988B36968C1F38101022978
:1009B00044D00228C6F8608004D0FFF74FFD0446FB
:1009C00038E034E0FFF74AFD074604E0FFF746FD54
:1009D000C01B02282BD828688001F7D4206AB0F504
:1009E000803F05D16868A16820F400300843686042
:1009F000D4E908010843696821F474110843686068
:100A0000C6F86090FFF72AFD044606E025E000BF27
:100A1000FFF724FD001B022809D828688001F7D5BC
:100A20001BE000BFFFF71AFD001B022802D90320BC
:100A3000BDE8F88F28688001F4D40EE00128F7D0D3
:100A40006868226A00F48031914204D1616A00F43E
:100A50007010884201D00120EAE70020E8E700009A
:100A60000010024000004242800442421800002070
:100A70000070004070B5040009D0606A002540B1E4
:100A800025616561A56294F8510040B10CE0012038
:100A900070BD6068B0F5827FF4D0E561F2E784F85C
:100AA0005050204600F040F8022084F851002068A1
:100AB000016821F040010160A088218900F4827062
:100AC00001F404410843A18901F400610843217C39
:100AD00001F002010843217D01F001010843218B4F
:100AE00001F400710843217F01F03801084394F8B4
:100AF000201001F080010843218D01F400510843CA
:100B000021680860A069042101EA1040216848605A
:100B10002068C16921F40061C1616565012084F824
:100B20005100002070BD000030B585B00024009455
:100B300001940294039400681449884223D1144814
:100B4000816941F480518161816901F4805104918E
:100B5000816941F00401816180690E4D00F004005B
:100B60000490A02000900220019003200390694689
:100B70002846FFF77DFB4020CDE900046946284662
:100B80000294FFF775FB05B030BD00000030014056
:100B900000100240000801402DE9F84F044640686B
:100BA0000025984616460F464FF0040BB0F5827F9D
:100BB00001D1A06888B194F85000012818D0012014
:100BC00084F85000FFF74AFC814694F851004FF03A
:100BD000000A01280ED0022582E084F851B01346A5
:100BE0000A462046CDF8008000F036F9BDE8F88FBF
:100BF0000220FBE7002F72D0002E70D084F851B095
:100C0000C4F854A0A763A687E687C4F830A0A4F868
:100C100034A0A4F836A0C4F840A0C4F844A0A0684A
:100C2000B0F5004F09D12068016821F04001016052
:100C30002068016821F4804101602068016849064C
:100C400003D4016841F040010160E068D8B139E0A7
:100C500020688168C90709D0007BA16B0870A06B70
:100C6000401CA063E08F401EE0870CE0FFF7F6FB1E
:100C7000A0EB0901414503D3B8F1FF3F03D036E0B3
:100C8000B8F1000F33D0E08F0028E1D11DE02068DB
:100C90008168C90709D0C068A16B0880A06B801C5F
:100CA000A063E08F401EE0870CE0FFF7D7FBA0EBCE
:100CB0000901414503D3B8F1FF3F03D017E0B8F174
:100CC000000F14D0E08F0028E1D14A46414620466B
:100CD00000F083FC08B120206065606D00B1012543
:100CE000012084F8510084F850A028467EE70325AF
:100CF000F6E72DE9F84F044690F8500000271D460E
:100D00001646894601280DD04FF0010B84F850B0EB
:100D1000FFF7A4FB804694F85100BA46012804D09E
:100D2000022793E00220BDE8F88FB9F1000F73D0DD
:100D3000002E71D0032084F85100C4F854A0C4F8E8
:100D40003090A686E686C4F838A0A4F83CA0A4F8A3
:100D50003EA0C4F844A0C4F840A0A068B0F5004F7D
:100D600009D12068016821F0400101602068016814
:100D700041F48041016020680168490603D401689C
:100D800041F040010160E068B0F5006F606803D099
:100D900030B3012E24D041E008B1012E1CD1206BCC
:100DA00021680088C86006E020688168890709D545
:100DB000216B0988C160206B801C2063E08E401E7F
:100DC000E08609E0FFF74AFBA0EB0800A84202D347
:100DD000681C01D031E07DB3E08E0028E4D120E032
:100DE000206B21680078087306E020688168890715
:100DF00009D5216B09780173206B401C2063E08EBC
:100E0000401EE0860AE0FFF729FBA0EB0800A8429D
:100E100003D3681C02D010E017E06DB1E08E00280B
:100E2000E3D142462946204600F005FC08B12020C7
:100E30006065A06818B106E0FFE7032706E02068B8
:100E4000C16880680090606D00B1012784F851B0DE
:100E500084F850A0384666E72DE9F84F044690F82C
:100E6000500000270A9E1D4692468B464FF001090E
:100E700001280ED0012084F85000FFF7EFFA8046D9
:100E800094F85100616801280CD0B1F5827F07D138
:100E900002E00220BDE8F88FA16809B9042801D05A
:100EA0000227C2E0BBF1000F27D0BAF1000F24D017
:100EB0001DB394F85100042802D0052084F8510095
:100EC00000206065C4F838A0E587A587C4F830B075
:100ED000E586A5862064606420680168490603D41D
:100EE000016841F040010160E068B0F5006F6068A2
:100EF00005D0E8B3012D46D07FE0012795E008B189
:100F0000012D39D1206B21680088C860206B801CBE
:100F10002063E08E401EE0862EE02068816889070D
:100F20000FD5E18E69B1B9F1010F0AD1216B0988A2
:100F3000C160206B801C2063E08E401EE0864FF075
:100F4000000920688168C9070CD0E18F51B1C068E1
:100F5000A16B0880A06B801CA063E08F401EE0871F
:100F60004FF00109FFF77AFAA0EB0800B04200E069
:100F700009E001D3701C50D1E08E0028CDD1E08F64
:100F80000028CAD13FE0206B216800780873206BED
:100F9000401C2063E08E401EE0862EE020688168C1
:100FA00089070FD5E18E69B1B9F1010F0AD1216B23
:100FB00009780173206B401C2063E08E401EE086A0
:100FC0004FF0000920688168C9070CD0E18F51B14A
:100FD000C068A16B0870A06B401CA063E08F401E2E
:100FE000E0874FF00109FFF739FAA0EB0800B042A3
:100FF00002D3701C01D010E07EB1E08E0028CDD16C
:10100000E08F0028CAD142463146204600F013FB4B
:1010100028B101272020606507E0032705E0A068CC
:1010200018B92068C16880680090012084F85100D8
:10103000002084F8500038462CE710B5401EB0F16F
:10104000807F01D3012010BD4FF0E02460610F21AB
:10105000601700F02DFC0020A06107202061002017
:1010600010BD70B5040004D094F83D00002510B107
:1010700006E0012070BD84F83C50204600F022F8C4
:10108000242084F83D002068C16821F40051C1602B
:10109000204600F069FB2068016921F4904101615C
:1010A0002068416921F02A0141612068C16841F44A
:1010B0000051C1602564202084F83D0084F83E0082
:1010C000002070BD30B585B00024009401940294D6
:1010D000039400681449884224D11448816941F47A
:1010E00080418161816901F480410491816941F00D
:1010F0000401816180690E4D00F0040004904FF4FA
:101100000070009002200190032003906946284659
:10111000FFF7AEF82815CDE9000469462846029489
:10112000FFF7A6F805B030BD0038014000100240BE
:10113000000801402DE9F843044690F83D001F46A1
:1011400016460D4620284CD1C5B1BEB194F83C00DE
:10115000012846D0012084F83C004FF00008C4F874
:101160004080212084F83D00FFF778F9A68481466D
:10117000E684A068B0F5805F03D004E00120BDE8FC
:10118000F883206928B12E465FF0000584F83C8082
:101190000EE00026FAE78021204600F041FBA0B9CE
:1011A000AEB116F8010B21684860E08C401EE08467
:1011B000E08C4B464FF0000200970028EBD14FF037
:1011C0004001204600F02CFB30B10320D7E735F872
:1011D000020BC0F30800E6E7202084F83D00002061
:1011E000CDE70220CBE7FEE72DE9F04186B00024F1
:1011F00020480094019402940394816941F0100105
:101200008161816901F010010491816941F020013F
:101210008161816901F020010491816941F004013B
:1012200081618069144F00F004004FF40055049070
:10123000002229463846FFF70BF9DFF840800022EC
:1012400018214046FFF704F9009502260125039670
:10125000CDE9015469463846FFF70AF81820CDE970
:101260000005CDE9024669464046FFF701F806B0A1
:10127000BDE8F0810010024000100140000801406C
:101280000C480B494FF4007201604FF482714160C9
:1012900000218160C1600161C0E905122022C0E91E
:1012A0000721416281620A21C162FFF7E3BB0000AE
:1012B0000030014030000020FEE7704710B50020EC
:1012C00000F070F840F00301002000F0E7F8012280
:1012D00008210648FFF7BCF89620FEF7A3FF00F0B0
:1012E00021F8BDE8104000F03DB8000000080140C2
:1012F00010B5072000F056F80A20FEF793FF0720EC
:1013000000F050F8400609D502220549612000F09E
:1013100079F8034C4021072000F0C0F8204610BDAA
:101320000400002038B50CA00C4C0068009000228E
:1013300010212046FFF78CF84FF47A73012269469A
:101340000748FFF7D6FC0120FEF76CFF01221021B1
:101350002046FFF77DF838BDE2000000000801409C
:101360003000002038B50CA00C4C00680090002222
:1013700010212046FFF76CF84FF47A73012269467A
:101380000748FFF7B6FC0120FEF74CFF01221021B1
:101390002046FFF75DF838BDE1000000000801407D
:1013A0003000002031B584B00020144D8DF80400C9
:1013B000024610212846FFF74BF84FF47A740123B8
:1013C00001AA04A90E480094FFF746FD9DF81000FD
:1013D000072809D0FF208DF80800012301AA02A9DF
:1013E00007480094FFF738FD012210212846FFF737
:1013F0002FF89DF8040005B030BD00000008014042
:1014000030000020F7B50E4C16460F460022102182
:101410002046FFF71DF84FF47A752B4601226946E6
:101420000848FFF766FC2B46324639460548FFF769
:10143000B3FB012210212046FFF70AF8FEBD000091
:10144000000801403000002038B511A0114C0068A0
:101450000090002210212046FEF7FAFF4FF47A7523
:101460002B46012269460C48FFF743FC0120FEF79A
:10147000D9FE73208DF800002B46012269460648EC
:10148000FFF737FC012210212046FEF7E1FF38BDAF
:1014900050000000000801403000002073B5104CDF
:1014A0009DF80000002240F020008DF8000010217F
:1014B0002046FEF7CDFF4FF47A752B460122694690
:1014C0000848FFF716FC2B46012201A90548FFF743
:1014D00010FC012210212046FEF7BAFF7CBD00005F
:1014E0000008014030000020F7B5124C9DF80000C4
:1014F000164640F020000F468DF800000022102113
:101500002046FEF7A5FF4FF47A752B460122694667
:101510000948FFF7EEFB0120FEF784FE2B4632461A
:1015200039460548FFF7E5FB012210212046FEF76A
:101530008FFFFEBD000801403000002010B50022E2
:1015400008212348FEF784FF41F288342046FEF745
:1015500069FE0A210020FFF7A1FF2046FEF762FE88
:1015600000210120FFF79AFF02210846FFF796FFAE
:1015700003210846FFF792FF5F210420FFF78EFF4B
:10158000FFF762FF00211D20FFF788FF00211C20CC
:10159000FFF784FF70210720FFF780FF4C21052013
:1015A000FFF77CFF00210620FFF778FF052209499D
:1015B0001020FFF799FF052206490B20FFF794FF43
:1015C00002211220FFF76AFFBDE81040FFF776BE48
:1015D00000080140060000207047F8B50446406846
:1015E0004FF48273984217D1A0684FF48065B0F52C
:1015F000004F01D0A8420FD12068066826F04006AF
:1016000006606068984207D1A068A84204D10092A1
:101610000B460022012103E000920B4600228021AC
:10162000204600F019F8002804D0606D40F020003A
:1016300060650320F8BD38B50B46009204460022D1
:10164000802100F009F8002804D0606D40F02000EF
:101650006065032038BD00002DE9F8431E46914621
:1016600088460446089DFEF7F9FE401B351AFEF732
:10167000F5FE074625480068C0F3CB30684338E0E4
:10168000701C37D0FEF7EAFEC01BA84203D215B18A
:10169000009860B32CE02068416821F0E0014160CF
:1016A0006068B0F5827F0BD1A068B0F5004F02D022
:1016B000B0F5806F04D12068016821F0400101601D
:1016C000A06AB0F5005F09D12068016821F40051DB
:1016D00001602068016841F400510160012084F834
:1016E0005100002084F850000320BDE8F883002555
:1016F000401E00902068816838EA010004D0002173
:101700004945BDD10020F0E70121F9E7180000208C
:101710007047FEF7A9BE30B58FB028216846FEF7A6
:101720001AFD14210AA8FEF716FD01210804CDE9CF
:1017300000100024029402250491CDE907504FF4D3
:10174000C01009906846FFF705F80F20CDE90A059B
:101750006802CDE90C4002210AA80E94FEF70EFFA4
:101760000FB030BD7047000070B5044600680169D5
:10177000E26821F44051114301612169A0680843E6
:10178000616908432168CA6841F20C639A430243C5
:10179000CA6020684169A26921F440711143416126
:1017A0001E492068884202D1FEF78EFF01E0FEF755
:1017B0007BFF00EBC00101EB001260686421800038
:1017C000B2FBF0F3B3FBF1F36FF018067343B2FB17
:1017D000F0F5B2FBF0F605EB8305322303EB0515BC
:1017E000B5FBF1F5B6FBF1F605F0F00505EB0615D6
:1017F000B2FBF0F6B2FBF0F0B0FBF1F06FF01802C4
:10180000504306EB800003EB0010B0FBF1F02168C1
:1018100000F00F002844886070BD000000380140CF
:101820002DE9F041984617460E460446069D1DE0F8
:10183000681C1BD02DB1FEF711FEA0EB0800A842DA
:1018400014D92068C16821F4D071C1602068416951
:1018500021F001014161202084F83D0084F83E0020
:10186000002084F83C000320BDE8F0812068006877
:1018700036EA000004D00020B842D9D00020F3E7B7
:101880000120F9E7FEE700000FB4084B10B504A9EA
:1018900002AA039800F02CF8044602A9002000F0E8
:1018A00052FA204610BC5DF814FB0000471D0008EA
:1018B0000907090E002804DB00F1E02080F800147D
:1018C000704700F00F0000F1E02080F8141D704711
:1018D00002E008C8121F08C1002AFAD170477047F9
:1018E000002001E001C1121F002AFBD17047000057
:1018F0002DE9FF4F8DB00F460546002606E025284E
:101900000BD0DDE90F1290476D1C761C287800285B
:10191000F5D111B03046BDE8F08F0024A246A146B3
:101920000122E94900E0044315F8013F203B02FA97
:1019300003F00842F7D128782A2810D06FF02F0240
:101940002878A0F13001092914D80AEB8A0102EBAA
:10195000410144F0020400EB010A6D1CF0E701CFE5
:101960005FEA000A03D544F40054CAF1000A44F0C7
:1019700002046D1C28782E2817D115F8010F44F0A9
:1019800004042A280ED06FF02F022878A0F130012D
:1019900009290AD809EB890102EB410100EB010991
:1019A0006D1CF2E757F8049B6D1C28786C280FD04B
:1019B00006DC4C2817D068280DD06A2814D104E022
:1019C000742810D07A280FD10DE044F400140AE0F6
:1019D00044F4801401E044F440146978814202D157
:1019E00004F580146D1C6D1C28786E281ED00CDC4C
:1019F000632830D004DC00288BD0582811D19FE018
:101A0000642867D069280CD164E073282DD004DCE9
:101A10006F2872D0702804D194E075286ED0782891
:101A20006DD0DDE90F129047761C4BE1C4F30250F4
:101A3000022806D0032809D0042801CF09D0066067
:101A400040E101CFF117C0E900613BE101CF068021
:101A500038E1067036E117F8040B8DF8000000201D
:101A60008DF80100EB46012003E057F804BB4FF06E
:101A7000FF3061074FF0000102D40DE008F10101D1
:101A8000884649450FDA8045F8DB1BF80810002925
:101A9000F4D108E008F1010188468142FADB1BF825
:101AA00008100029F6D1DDE90F23AAEB08008146D2
:101AB000214600F031F9304400EB080604E0DDE98E
:101AC0000F121BF8010B9047B8F10108F7D221461D
:101AD0004846F2E00A21C4F302524FF0000B08918D
:101AE000022A04D001CFC117032A09D00AE0FF1D42
:101AF00027F00707F7E8020108E02CE01EE01FE0EE
:101B000000B2C117042A01D140B2C117021E71F1FF
:101B1000000206DA0023D0EB030063EB01012D2263
:101B200002E0220504D52B228DF82420012203E0B7
:101B3000E20701D02022F7E7904653E00A210BE0AC
:101B4000102109E010214FF0000B44F004044FF085
:101B50000809089103E008214FF0000B0891C4F335
:101B60000252022A04D001CF0021032A06D006E047
:101B7000FF1D27F00707F7E8020103E080B2042AFF
:101B800000D1C0B24FF0000822072BD52A78702A66
:101B900007D0DDF820C08CF0100C5CEA0B0C05D0EF
:101BA0000EE040228DF82420012208E050EA0103D3
:101BB00006D030238DF824308DF82520022290465F
:101BC000089B83F0080353EA0B030BD150EA010290
:101BD00001D1620706D530228DF824204FF001088C
:101BE000A9F101092A78582A04D038A20B9208AA30
:101BF0000A920BE03AA2F9E75B46089AFEF7BDFAB3
:101C00000B9B9B5C0A9A521E0A92137050EA0102C7
:101C1000F2D10A98ADEB000000F1200B600702D56D
:101C200024F4803401E04FF00109D94502DDA9EB2D
:101C30000B0000E0002000EB0B0141440890AAEBF0
:101C4000010AE00306D4DDE90F232146504600F0E7
:101C500063F806444FF0000908E009A911F80900EB
:101C6000DDE90F12904709F10109761CC145F4DB4B
:101C7000E0030CD5DDE90F232146504600F04CF877
:101C8000064404E0DDE90F1230209047761C0899E5
:101C9000481E08900029F5DC08E00A980A990078A7
:101CA000491C0A91DDE90F129047761CBBF1000137
:101CB000ABF1010BF1DC21465046DDE90F2300F0CA
:101CC00019F806446D1C21E6092801003031323331
:101CD0003435363738396162636465660000000068
:101CE0003031323334353637383941424344454652
:101CF000000000002DE9F041044600251E4617466D
:101D0000880404D405E039462020B0476D1C641EC9
:101D1000F9D52846BDE8F0812DE9F04104460025BB
:101D20001E469046C80301D5302700E020278804CE
:101D300004D505E041463846B0476D1C641EF9D510
:101D40002846BDE8F0810A68531C0B60107070478C
:101D50000EB5FEF791FBFFF7DEFCFFF745FAFFF744
:101D60008FFAA248A0490C2201604FF4E131416092
:101D700000218160C160C0E904128161C161FFF787
:101D800070F9FFF7DBFB9A4C4FF47A764FF48055ED
:101D90003046FEF75BFAFFF7ABFA20604378027833
:101DA000924894A16C38FFF76FFD90486C38FEF7AD
:101DB000DDF98E4982B22B466C398C48FFF7BAF9AF
:101DC0000020FFF7EFFA0246884892A16C38FFF72F
:101DD0005BFD86486C38FEF7C9F9844982B22B4610
:101DE0006C398248FFF7A6F90120FFF7DBFA0246BB
:101DF0007E488DA16C38FFF747FD7C486C38FEF7B4
:101E0000B5F97A4982B22B466C397848FFF792F9D6
:101E10000220FFF7C7FA0246744887A16C38FFF723
:101E200033FD72486C38FEF7A1F9704982B22B4637
:101E30006C396E48FFF77EF90320FFF7B3FA0246CC
:101E40006A4882A16C38FFF71FFD68486C38FEF7BE
:101E50008DF9664982B22B466C396448FFF76AF9FE
:101E60000420FFF79FFA024660487DA16C38FFF717
:101E70000BFD5E486C38FEF779F95C4982B22B465F
:101E80006C395A48FFF756F91D20FFF78BFA0246C6
:101E9000564879A16C38FFF7F7FC54486C38FEF7C8
:101EA00065F9524982B22B466C395048FFF742F926
:101EB0001C20FFF777FA02464C4874A16C38FFF7F4
:101EC000E3FC4A486C38FEF751F9484982B22B4688
:101ED0006C394648FFF72EF90720FFF763FA0246F0
:101EE00042486EA16C38FFF7CFFC40486C38FEF7D3
:101EF0003DF93E4982B22B466C393C48FFF71AF94E
:101F00000520FFF74FFA0246384869A16C38FFF701
:101F1000BBFC36486C38FEF729F9344982B22B46AF
:101F20006C393248FFF706F90620FFF73BFA024604
:101F30002E4863A16C38FFF7A7FC2C486C38FEF7DD
:101F400015F92A4982B22B466C392848FFF7F2F876
:101F5000052210202168FFF755FA2068817803795F
:101F6000C2788DE80E0043780278204859A16C3879
:101F7000FFF78AFC1D486C38FEF7F8F81B4982B25F
:101F80002B466C391948FFF7D5F805220A2021683D
:101F9000FFF738FA206881780379C2788DE80E005F
:101FA00043780278114858A16C38FFF76DFC0F4850
:101FB0006C38FEF7DBF80D4982B22B466C390B48C2
:101FC000FFF7B8F809485DA16C38FFF75DFC0748DA
:101FD0006C38FEF7CBF8054982B22B466C390348C2
:101FE000FFF7A8F8D4E60000003801408800002080
:101FF00000000020526563656976656421204461B4
:1020000074613A20307825303258203078253032CB
:10201000580D0A00434F4E4649473A203078253044
:1020200032580D0A00000000454E5F41413A203011
:1020300078253032580D0A00454E5F5258414444CD
:10204000523A203078253032580D0A005345545505
:10205000505F41573A203078253032580D0A000041
:1020600053455455505F524554523A2030782530EC
:1020700032580D0A00000000464541545552453A79
:10208000203078253032580D0A00000044594E5057
:10209000443A203078253032580D0A0053544154C8
:1020A00055533A203078253032580D0A0000000090
:1020B00052465F43483A203078253032580D0A00A6
:1020C00052465F53455455503A20307825303258A7
:1020D0000D0A000054585F414444523A203078259C
:1020E0003032582C203078253032582C203078254A
:1020F0003032582C203078253032582C203078253A
:102100003032580D0A00000052585F414444523AA0
:10211000203078253032582C203078253032582C19
:10212000203078253032582C203078253032582C09
:10213000203078253032580D0A0000002D2D2D2D2D
:102140002D2D2D2D2D2D2D2D0D0A00000000000010
:102150000000000001020304060708090000000057
:102160000102030484210008000000201C0000007C
:10217000D0180008A02100081C000020B4040000B2
:10218000E0180008000000000000787878787800F7
:102190000100000010000000000000000024F40016
:04000005080000ED02
:00000001FF
